:020000040800F2
:1000000048040020A11F00086D1F00086F1F000892
:1000100000000000000000000000000000000000E0
:10002000000000000000000000000000731F000836
:100030000000000000000000751F0008771F000886
:100040009B0A00085B1800088B180008F31C0008C6
:10005000231F00082F1F00085B1F00087F1F0008D8
:1000600000000000D11F0008D31F0008D51F0008A2
:10007000D71F0008D91F000800000000DB1F000880
:100080000000000000000000000000000000000070
:10009000DD1F000800000000DF1F0008E11F00084E
:1000A00000000000E31F0008000000000000000046
:1000B000E51F00080F13000800000000000000000A
:1000C000F8B5040000262078C00771D5AC48006858
:1000D0000C210140082909D0A94800680C210140E1
:1000E0000C290CD1A6480068C00308D5A5480068B3
:1000F00080035DD5606800285AD101205CE2606809
:1001000080214902884207D19E4800688021490227
:1001100001439C4801602CE06068A021C90288422C
:1001200014D198480068B849014096480160954844
:1001300000688021C902014392480160914800682B
:100140008021490201438F48016012E08D48006818
:10015000AD4901408B4801608A480068802149020E
:1001600008400090009887480068A84901408548E9
:100170000160606800280DD000F0A0FB06008148F7
:100180000068800314D400F099FB801B6528F6D327
:10019000032011E200F092FB06007A480068800319
:1001A00006D500F08BFB801B6528F6D3032003E205
:1001B0002078800721D5724800680C21014004296D
:1001C00009D06F4800680C2101400C2927D16C48E8
:1001D0000068C00323D46B480068400704D5E0687A
:1001E000012801D00120E7E1BB480068BB4901407C
:1001F000206900020843B84908602078C00667D526
:100200005F4800680C21014000297BD15D480068EF
:1002100080053DD5A06900283AD10120CCE1E068F5
:1002200000281FD05748006809218843E16801432E
:100230005448016000F042FB060052480068400745
:1002400006D400F03BFB801B0328F6D30320B3E168
:10025000A1480068A14901402069000208439E4965
:100260000860CAE74748006809218843E1680143FC
:100270004448016000F022FB060042480068400745
:10028000BBD500F01BFB801B0328F6D3032093E1B2
:100290009148006892490140206A08438E490860ED
:1002A0008D4800680002000AE169090601438A4896
:1002B000016000F075FAC149314A1268120912074B
:1002C000120F895CC840BE490860032000F0FCFAA8
:1002D000207800076CD56069002855D0B9480068BF
:1002E00001210143B748016000F0E8FA0600B54873
:1002F000006880075CD400F0E1FA801B0328F6D385
:10030000032059E1A069002826D01E4800688021FA
:10031000490001431B48016000F0D0FA060019486B
:100320000068800506D400F0C9FA801B0328F6D3C4
:10033000032041E16848006869490140206A084398
:1003400065490860644800680002000AE16909061E
:10035000014361480160BBE70A4800689A490140CF
:100360000848016000F0AAFA060006480068800507
:10037000AED500F0A3FA801B0328F6D303201BE1BF
:100380000C100240001002408E4800680121884392
:100390008C49086000F092FA06008A4800688007DD
:1003A00006D500F08BFA801B0328F6D3032003E167
:1003B0002078400700D4A7E0002700258348006884
:1003C000C00007D4814800688021490501437F4867
:1003D000016001277E480068C00519D47C48006888
:1003E0008021490001437A480160012500F066FA46
:1003F000060077480068C0050AD400F05FFA801B49
:100400006528F6D30320D7E0FFFFFEFFFFFFFBFFC9
:10041000A06880214900884207D16A48006880218D
:10042000490001436748016035E0A06800280CD10D
:10043000644800686449014062480160614800689E
:10044000644901405F48016025E0A068A021C9001F
:10045000884214D15B4800685B49014059480160FB
:10046000584800688021C90001435648016055483A
:100470000068802149000143524801600BE0514867
:100480000068514901404F4801604E480068514999
:1004900001404C480160A06800280ED000F00EFA20
:1004A00006004848006880051CD400F007FA801B4D
:1004B00049498842F5D303207EE000F0FFF90600A9
:1004C0004048006880050DD500F0F8F9801B4249CE
:1004D0008842F5D303206FE004100240FFE0FFFFE5
:1004E000FF1FFFFFEDB2012D05D1394800683649E5
:1004F000014037480160FFB2012F05D13348006841
:10050000A149014031480160606A002853D09F48EA
:1005100000680C2101400C294BD0606A022834D1BC
:100520009B4800689B4901409948016000F0C6F96A
:10053000060097480068800106D500F0BFF9801BCF
:100540000328F6D3032037E0904800689249014021
:10055000E06A0843216B0143A06A08438B490860A5
:100560008B4800688021490401438948016000F0FC
:10057000A5F906008648006880011CD400F09EF9A9
:10058000801B0328F6D3032016E0814800688149C8
:1005900001407F48016000F091F906007C48006846
:1005A000800108D500F08AF9801B0328F6D30320C8
:1005B00002E0012000E00020F2BD0000901F0008D2
:1005C0000400002050100240FFFEFFFF38100240E0
:1005D00000700040FFFBFFFF8913000070B50500AD
:1005E0000C0000266D4800680100C907C90FA14230
:1005F0000FD26A4800680121884320436749086098
:10060000664800680100C907C90FA14201D0012056
:10061000B8E02878800707D55C480068F021884357
:10062000A9680143594801602878C0076CD56868FB
:10063000022805D156480068800319D40120A1E0A2
:100640006868002805D152480068800510D4012050
:1006500098E06868032805D14D480068800107D4F8
:1006600001208FE04A480068400701D4012089E05A
:100670004648006803218843696801434348016094
:1006800000F01CF90600686802280DD13F48006898
:100690000C210140082937D000F010F9801B744963
:1006A0008842F3D303206DE0686803280DD13748F2
:1006B00000680C2101400C2926D000F0FFF8801BB7
:1006C0006B498842F3D303205CE0686800280DD1B1
:1006D0002E4800680C210140002915D000F0EEF8EA
:1006E000801B63498842F3D303204BE0274800680E
:1006F0000C210140042907D000F0E0F8801B5C4980
:100700008842F3D303203DE0244800680100C90774
:10071000C90FA1420FD3214800680121884320431B
:100720001E4908601D4800680100C907C90FA142A1
:1007300001D0012026E02878400707D5134800683B
:1007400052490140E86808431049086028780007CA
:1007500008D50E4800684E4901402869C00008438A
:100760000A49086000F01CF84A49084A1268120950
:100770001207120F895CC84047490860032000F047
:10078000A3F8002070BD0000FFFFFFEF0C10024037
:1007900000100240FFFFFFFEFFFF02FF00200240AB
:1007A00000B5002000210022002100203D48006803
:1007B000400B4107490F394800680C220240002ACB
:1007C00006D0042A0BD0082A11D00C2A11D039E007
:1007D0000120491C884080210902484338E0304804
:1007E0000068C00601D5304800E0304830E03048AD
:1007F0002EE02A480168F0208003084027490A6853
:10080000C021090411402B4A800C105C890D491C41
:10081000224A126880235B021A40002A0DD1204A26
:100820001268D20604D5204A504300F061F808E06F
:100830001E4A504300F05CF803E01D4A504300F0AC
:1008400057F805E00120491C8840802109024843EF
:1008500000BD11480068704780B5FFF7FAFF1649E0
:100860000E4A1268120A5207520F895CC84002BD34
:100870008913000080B5FFF7ECFF0F49074A1268A3
:10088000D20A5207520F895CC84002BDFFF8FFFF31
:10089000FFC7FFFF901F0008040000200C1002405B
:1008A000001002400410024000093D000024F40042
:1008B00000127A00B01F0008C81F00080148006835
:1008C000704700BF300D002010B5040007480068D5
:1008D000FA21890000F00CF800F0CDF80022210088
:1008E0000020C04300F0BDF8002010BD040000202F
:1008F0000022030A8B420BD203098B4219D2430810
:100900008B422ED2411A00D2014652411046704706
:10091000FF2209023FD012068B4205D312120902B0
:100920008B4201D31212090203098B4219D300E052
:10093000090AC3098B4201D3CB01C01A5241830972
:100940008B4201D38B01C01A524143098B4201D320
:100950004B01C01A524103098B4201D30B01C01A4B
:100960005241C3088B4201D3CB00C01A52418308C5
:100970008B4201D38B00C01A524143088B4201D3F2
:100980004B00C01A5241884200D3401A5241CFD284
:1009900001461046704708B500F07EF808BD080013
:1009A0000121C006C00E8140354801607047F0B596
:1009B00040B2002821D5334B40B20207120F083A4B
:1009C0009208042462432F4C40B205072D0F083DC6
:1009D000AD08042675436459FF258607B60F08271E
:1009E0007E43B540AC438901C9B28007800F08251A
:1009F00068438140214399501AE0234A40B283085A
:100A000004246343D258FF238407A40F08256C43B2
:100A1000A3409A438901C9B283079B0F082463430B
:100A200099401143184A40B280080423584311509A
:100A3000F0BD80B5411E80225204914201D30120B5
:100A40000EE0401E1149086003210020C043FFF75B
:100A5000AEFF00200E49086007200E490860002004
:100A600002BD80B540B2FFF7A2FF01BD80B540B224
:100A7000FFF796FF01BD80B5FFF7DBFF02BD000069
:100A800000E100E01CED00E000E400E014E000E024
:100A900018E000E010E000E07047FEE710B5040049
:100AA000002C01D1012033E0A0690028FFD169208A
:100AB000205C002805D1002068216054200000F04F
:100AC0002BFB2420692160542068006801218843A1
:100AD00021680860200000F01FF8606A002802D03A
:100AE000200000F011FA206840680A49014020689F
:100AF0004160206880682A218843216888602068D6
:100B000000680121014320680160200000F0C4F961
:100B100010BD0000FFB7FFFFF8B504000022002160
:100B2000002200202268AD4B9A42FFD0A2682369C0
:100B3000134365691D43E2692A4323681B68C04D5E
:100B40001D402A4323681A6022685268BD4B134037
:100B5000E2681A4323685A60A26923689F4DAB423A
:100B600002D01300226A1A4323689B68B64D1D40C9
:100B70002A4323689A602268B44B9A4215D1C54A29
:100B800012680C231340002B06D0042B08D0082B2E
:100B900004D00C2B06D007E0002126E0022124E03F
:100BA000042122E0082120E01FE022688B4B9A42BA
:100BB0001BD1B84A1268C0231B011340002B0CD074
:100BC0008022D20093420CD080221201934206D0A0
:100BD000C0221201934206D007E0002105E0022165
:100BE00003E0042101E00821FFE722687B4B9A42E1
:100BF00000D099E0002906D0022926D0042958D037
:100C0000082978D08FE0FFF727FE00F01FFC0022B4
:100C1000B84B00F02BFC06000F006068400800F0A5
:100C200015FC32003B0000F0E3FC06000F0060689A
:100C300000F00CFC02000B003000390000F0ACFDAD
:100C400000F00CFE2168C86022E1AB480068C006D5
:100C500017D56068400800F0F9FB0022A74B00F0B0
:100C6000C7FC06000F00606800F0F0FB02000B00FC
:100C70003000390000F090FD00F0F0FD2168C86000
:100C800016E06068400800F0E1FB00229C4B00F099
:100C9000AFFC06000F00606800F0D8FB02000B00FC
:100CA0003000390000F078FD00F0D8FD2168C86000
:100CB000EEE0FFF775FD00F0C9FB00228D4B00F060
:100CC000D5FB06000F006068400800F0BFFB320053
:100CD0003B0000F08DFC06000F00606800F0B6FBE2
:100CE00002000B003000390000F056FD00F0B6FDA8
:100CF0002168C860CCE06068400800F0A7FB0022D3
:100D0000804B00F075FC06000F00606800F09EFB51
:100D100002000B003000390000F03EFD00F09EFDA7
:100D20002168C860B4E0B3E0E26980231B029A4204
:100D300056D1002908D0012911D002291AD004293E
:100D40002CD0082935D03DE0FFF786FD022148432D
:100D50006168490840186168FFF7CAFD32E0FFF793
:100D600089FD022148436168490840186168FFF71E
:100D7000BFFD27E060480068C00607D560684008EE
:100D8000994940186168FFF7B3FD06E060684008C4
:100D9000964940186168FFF7ABFD13E0FFF700FDCF
:100DA000022148436168490840186168FFF7A0FDC7
:100DB00008E0606840088021490240186168FFF738
:100DC00097FDFFE78A4A02400007000FC0B24008C3
:100DD000C0B2024392B22068C26059E000480040AD
:100DE000002908D0012911D002291AD0042939D0AC
:100DF000082942D04CE0FFF72FFD616849084018F0
:100E00006168FFF775FD2168C86041E0FFF732FDBA
:100E10006168490840186168FFF76AFD2168C86089
:100E200036E035480068C00612D560684008AD4914
:100E300040186168FFF75CFD2168C86011E000BFE1
:100E4000F369FFEFFFCFFFFFFFF4FFFF0044004017
:100E500060684008A44940186168FFF749FD2168AF
:100E6000C86015E0FFF79CFC61684908401861689C
:100E7000FFF73EFD2168C8600AE0606840088021F5
:100E8000090240186168FFF733FD2168C860FFE779
:100E9000F1BD00004C10024010B50400206800684D
:100EA00000070AD5914B002280218903200000F021
:100EB000A1F8002801D003201AE02068006840074C
:100EC0000AD58A4B00228021C903200000F092F845
:100ED000002801D003200BE000206821605400208E
:100EE000E06620206921605420206A21605400209F
:100EF00010BD000000007040001002408084CE4110
:100F00008084EE410000604100B52421415CC907A6
:100F100007D501684968764A0A40816A1143026828
:100F200051602421415C890707D501684968714AED
:100F30000A40C16A1143026851602421415C49079B
:100F400007D5016849686C4A0A40016B1143026881
:100F500051602421415C090707D501684968674A47
:100F60000A40416B1143026851602421415CC9066B
:100F700007D501688968624A0A40816B114302689B
:100F800091602421415C890607D5016889685D4A22
:100F90000A40C16B1143026891602421415C4906FB
:100FA00014D501684968584A0A40016C1143026827
:100FB0005160016C80225203914207D10168496857
:100FC000524A0A40416C1143026851602421415C3D
:100FD000090607D5016849684D4A0A40816C1143EA
:100FE0000068416000BD000000127A000048E8017E
:100FF000F0FF0000F2B5040017001D000026FFF707
:101000005DFC0600FFB2002F34D12068C069009952
:1010100001400098814262D00020C0438542F4D054
:10102000002D04D0FFF74AFC801B8542EDD22068DA
:1010300000688021884321680860206800682021BA
:1010400088432168086020680068324901402068B0
:101050000160206880680121884321688860202021
:101060006921605420206A21605400206821605466
:10107000032035E02068C069009901400098814252
:101080002DD10020C0438542F4D0002D04D0FFF7BD
:1010900015FC801B8542EDD22068006880218843C2
:1010A0002168086020680068202188432168086062
:1010B0002068006817490140206801602068806846
:1010C0000121884321688860202069216054202004
:1010D0006A216054002068216054032000E0002051
:1010E000F2BD000000093D000024F400F0550000AE
:1010F000FFFFFDFFFFFFFEFFFFFFFBFFFF7FFFFF87
:10110000FFEFFFFFFFDFFFFFFFFFEFFFFFFF9FFF8F
:10111000FFFFF7FFFFFEFFFF00B587B07F480068C5
:10112000012101437D4801607C4800680100C90736
:10113000C90F009100987948006801210143774860
:101140000160764800680100C907C90F0091009846
:10115000B64800688021C9020143B44801600420F8
:1011600001900220029001200390032004900620A9
:10117000059001A9A020C00500F088FB082001907F
:101180000620059001A9A020C00500F07FFB0122E8
:1011900000211D20FFF765FC1D20FFF767FC07B04D
:1011A00000BD80B500F003F800F02EF801BDA048A6
:1011B000A0490860A0489F494860A0489D498860B0
:1011C0008020C0009B4988818020C0009949C88147
:1011D00000209849088200209649488200209549BD
:1011E000C882002093490883002092494883002048
:1011F0009049888200208F49C86100208D4908628B
:1012000000208C494862704780B589488C49086045
:10121000962080018A494860002089498860002022
:101220008749C86000208649086100208449886198
:101230000C20834948618248FFF730FC8048FFF763
:101240006BFF7F4800680068202101437C480068EC
:10125000016001BD78B5002325E0012484F31088E6
:10126000848A6D462C80002484F310886C46248880
:101270008589AC42F1D29BB2CC5C4568068AAC55FC
:10128000012484F31088048A641C04828589A4B232
:10129000AC4201D300240482848A641C848200242A
:1012A00084F310885B1C1C001500A4B2ADB2AC42E4
:1012B000D3D3634800680068802101436048006818
:1012C000016071BD00B5012282F31088428B0023BA
:1012D00083F3108892B2002A01D1002016E08268C0
:1012E000038BD25C0A70012181F31088018B491CA9
:1012F0000183C28989B2914201D300210183418BCC
:10130000491E4183002080F31088012000BD80B574
:10131000484800F005F801BD000000002C10024014
:1013200010B504002068C06980061ED520680068DA
:1013300080061AD543480068A168E28A8854E18A89
:10134000491CE182E28989B2914201D30021E18204
:10135000618BE289914202D2618B491C6183616A8F
:10136000002902D0C0B2616A88472068C0690006BF
:1013700029D520680068000625D5A08A002810D14C
:101380002F4800680068402101432D480068016033
:101390002B48006800688021884329490968086053
:1013A0003BE06068618A405C27490860608A401CB5
:1013B0006082A18980B2884201D300206082A08A25
:1013C000401EA08229E02068C069400625D520681B
:1013D0000068400621D5A08A00280DD11848006871
:1013E000006840218843164909680860206A00287F
:1013F00013D0206A804710E06068618A405C12491F
:101400000860608A401C6082A18980B2884201D352
:1014100000206082A08A401EA08210BD01B501227A
:1014200069460448FFF716FF009802BD38100240D5
:1014300000480040080D0020480400204808002013
:10144000480C00202448004028480040010000BF0C
:1014500042221201D21E004207D002D4521E0018AE
:10146000FCD5C10A4005120589187047F0B50E0079
:101470005E400125ED072E40B446AE0ADF184C1839
:10148000F44208D2F7420ED2640D01D07F0D12D182
:1014900000206146F0BD05D1F74201D87F0D05D18E
:1014A0000020C143F0BDFBD1640DF9D00020C14341
:1014B000490549088FE0E419C902DB0229432B439F
:1014C000DB0A460DC00231438E4630B487B295B276
:1014D0007D432E0CADB2140C7C43A419260C2404BD
:1014E00025439CB27C43A419190C7943270CC919D4
:1014F000A4B20F043C43090C000C97B247432E0CD6
:10150000BE193543ADB2170C4743360CBF19A6B20E
:10151000BF193E043543240C3E0C36199FB2474395
:10152000BF19BCB23E0C89191F0C47437F183E04FB
:101530003443390C704680B297B247432E0CBE1923
:101540003543ADB2170C4743360CBF19A6B2BF19CD
:101550003E043543240C3E0C36199FB24743BF1955
:10156000BCB23E0C89191F0C47437F183E0434431C
:10157000390C77463F0C90B278432E0C8019060444
:10158000ADB22E43050CA0B22D18120C7A4350199F
:10159000020C80B2240CA4189AB27A4312191404D3
:1015A0002043120C89181B0C7B43C91830BCEF0A6E
:1015B000394203D1B61940414941641E6F12BF0D33
:1015C000E41B0BDBFF19BC4211DA2405002742089B
:1015D000AE417841614166463143F0BD641C05D19E
:1015E000401C6141CF0201D34908F4E750E75DE7B1
:1015F000F0B40125ED070F005F404FD48B4200D1BE
:10160000824205D98446100062468C461900634622
:10161000DF184C18640D7F0D3AD0661C760537D064
:10162000E61B352E34DCDB022B43DB0A0C0DC90232
:101630002943C912202E0DDB1700203E06D01F00C3
:10164000F741F3405F400026012A7741C0187141FD
:101650000DD217E01700F741F2405740F3415A40CE
:10166000B340F3405A400026801859410AD3A21CC7
:1016700052050FD0C207012F724117004008CB0757
:1016800018434908641C24054208AF417041614178
:10169000F0BC7047641C21050020F9E76B400AE0AC
:1016A0006B40ABE7F742F3D1E943F1E72442EFD1D6
:1016B00000200021ECE70C00871A9C4105D2C01BDA
:1016C000A141D219634169406B40AE0ADF184C1842
:1016D000F442E7D2640D7F0DE8D0E61B362ED7DC4E
:1016E000DB022B43DB0AA4460C0DC9022943C90ABD
:1016F000012E28DC04D1D6075208DF073A435B08E5
:10170000EF0A76429041994114D039423BD1B61943
:1017100040414941761C394204D1761C00184941A8
:101720003942FAD0B9436746B74208D9A41B240509
:101730002143ADE70042EAD13642E8D1A8E7E40A06
:10174000E1070020A4E7202E0BDD203E1F00F34020
:10175000F7415F40012A002257417E429841914162
:101760000BE01700F741F2405740F3415A40B340B5
:10177000F3405A407E42904199410A0303D2641ECD
:10178000B619404149410027641E24054208AE4174
:1017900078416141F0BC7047F0B40E005E40012515
:1017A000ED072E40B446AE0ADF184C18F4423BD287
:1017B000F74241D2640D43D07F0D38D0E41BC902FB
:1017C000DB0229432B43CF0ADB0A0600B61A9F41EE
:1017D00004D2641EB6197F41B6185F416812800DAD
:1017E00024180018844222DAE80C0021B6197F413F
:1017F000B61A9F4102D2B6185F413F1C4041494191
:10180000F4D3241C21DD2405B6197F41B61A9F416B
:1018100005D33743C60737430026012F7041614186
:1018200066463143F0BC7047FCD1F74205D2002038
:10183000C14349054908F3E704D00020C143F1E75B
:101840007F0DFAD000206146ECE72442FAD1401C1B
:1018500061410F03F6D30020E2E7FEE74A1812D2F7
:10186000400DC90208430121C9070843520D402118
:101870000901521A521C06D452421F3201D4D040E0
:101880007047C017704700207047FEE7F0B50200B0
:1018900000230024002533E006201E00B607B60F03
:1018A00004277E43B0402843050065489E0804276E
:1018B0007E43855163480568A5434868C00300D549
:1018C00025436048056060480568A5434868800373
:1018D00000D525435C4805605C480568A543486819
:1018E000C00200D525435948056059480568A543FD
:1018F0004868800201D52C432500554805605B1CD3
:101900000868D840002800D199E0086801249C406C
:101910000440002CF3D04868022802D048681228FE
:101920001AD1D808042568431018056A0F201E0034
:101930007607760F04277E43B040854308691E0072
:101940007607760F04277E43B04028430500D80869
:1019500004267043101805624868012808D04868BA
:10196000022805D04868112802D0486812281AD1E8
:10197000956803201E0002277E43B0408543C86857
:101980001E0002277E43B04028430500956055683D
:101990000120984085432E0048680500ED06ED0FB4
:1019A0009D4035435560156803201E0002277E4385
:1019B000B040854308798007800F1E0002277E43D0
:1019C000B040284305001560D56803201E0002279B
:1019D0007E43B04085432F008D681E0002204643A1
:1019E000B5403D43D5604868C00088D51E480068B2
:1019F000012505431C48056011489D0804267543D0
:101A000045590F201E00B607B60F04277E43B0408D
:101A10008543A020C005824201D100203DE7134844
:101A2000824201D1012038E71148824201D10220CF
:101A300033E71048824200D02EE705202DE7F0BDA5
:101A40000800014000040140040401400804014072
:101A50000C04014000B5D2B2002A02D089B28161E3
:101A600001E089B2816200BD3410024000040050E0
:101A700000080050001C005070B50600080014005B
:101A8000002B05D01D002178B047641C6D1EFAD1D3
:101A900070BDFDB586B00C0009E00123079A210056
:101AA0000698FFF7E9FF04000798401C0790079885
:101AB0000078010002D1002009B0F0BD2528ECD14A
:101AC00007984678801C0790252E1BD0582E69D089
:101AD000632E0ED0642E1AD0692E18D06F2E61D0CE
:101AE000702E68D0732E70D0752E5BD0782E59D0A2
:101AF000DDE708980068089908600168001D089AE9
:101B00001060C9B22000069A90470400CFE70898F9
:101B10000068089908600568001D08990860002D94
:101B200004D52D212000069A9047040064266F2ECC
:101B300001D1082106E020213143782901D00A2172
:101B400000E0102101910B2100912F00642E03D1A0
:101B5000002D01D578420700009D6D1E00953800CC
:101B60000199FEF7C5FE3031C9B23A2902DB3000D7
:101B70005138091802A84519297038000199FEF753
:101B8000B7FE070002D000980128E5DA20000B21FB
:101B9000009A8C1AB9D02978069A90476D1C641E59
:101BA000F9D1B2E708980068089908600568001D37
:101BB00008990860BBE708980068089908600568FC
:101BC000001D089908607826B1E708980068089910
:101BD00008600568001D08990860280000F00CF8EE
:101BE00001002000002990D00C002978069A904727
:101BF0006D1C641EF9D188E7010000E0491C0A78D9
:101C0000002AFBD1081A704780B500F061F800F097
:101C100011F8002000F06EF8FFF7C3FA26492748B4
:101C2000FFF750FB0028F9D02348017824A000F0EA
:101C300099F8F3E700B593B06846142100F0BCF8BA
:101C400005A8342100F0B8F81020059001200B9071
:101C5000A02000020D9000200C9000200E9005A8FE
:101C6000FEF72EFA002800D0FEE70F20009000209B
:101C70000190002002900020039000200490002199
:101C80006846FEF7ABFC002800D0FEE70D48006870
:101C90008021490501430B4801600B480068C021C1
:101CA00049010143084801600648006807490140AE
:101CB0000448016013B000BD340D0020080D002061
:101CC000256300003810024000700040FFFFFFEF66
:101CD00080B50648006802210143044801600320E2
:101CE000FEF7F2FD00F004F8002002BD00200240E3
:101CF0007047FEE710B586B004001748006802215F
:101D00000143154801601448006802210840009012
:101D100000981248E4B202216143405A0190012028
:101D20000290002003900320049001A90C48E4B223
:101D3000042262438058FFF7A9FD00220748E4B25D
:101D400002216143415A0648E4B204235C4300592E
:101D5000FFF780FE06B010BD2C1002409E0900085F
:101D6000000000200EB400B582B003A900916B46BC
:101D700002000121034878440A30FFF78AFE0299E5
:101D800006B00847C1010000130030B4140015006C
:101D9000103902D310393CC0FCD2490700D30CC023
:101DA00000D504C0890002D30280801C002900D520
:101DB000027030BC704700000022E5E7164800685A
:101DC0008021490001431448016014480068144907
:101DD00001401248016010480068124901400E4855
:101DE000016011480068012188430F4908600A48D2
:101DF00000680E49014008480160084800680C4925
:101E000001400648016000200A4908608020000562
:101E10000949086070470000001002400C100240A1
:101E20000C40FF88F6FFF6FE08100240FFFFFBFFA4
:101E3000FFFF02FF1010024008ED00E070B4012126
:101E4000002213E00468001D0C4202D04D466D1EB6
:101E500064192260241D1B1F042BFAD225009E0743
:101E600001D52280AD1C0B4000D02A700368001DF4
:101E7000002BE7D170BC704730B501684118446849
:101E800062088A188368E40701D54C461B19914201
:101E900001D10C3030BD0C7864B2491C0D78491C5E
:101EA0001D705B1C002C02D5641CF9D1EFE7641E89
:101EB000F4D5ECE710B5074979441831064C7C4459
:101EC000163404E0081D0A68891888470100A142F9
:101ED000F8D110BD080000002400000061FFFFFFE2
:101EE000F008000048040020000000008DFFFFFF04
:101EF000F6000000560000000000002000F00BF883
:101F0000002801D0FFF7D6FF002000BF00BFFFF779
:101F10007BFE00F002F80120704780B500F002F867
:101F200001BDFEE70746384600F002F8FBE7FEE792
:101F300080B500BF00BF024A11001820ABBEFBE70E
:101F40002600020038B505000C00200000F006F85D
:101F5000A04200D00025280032BDFEE780B502492E
:101F6000FFF75CFA02BD00BF08000020704700B513
:101F7000FEE77047704780B500F002F801BDFEE74C
:101F800002480068401C014908607047300D00207D
:101F90000000000000000000010203040607080919
:101FA0000148804701480047BD1D0008BD1F0008CB
:101FB000030406080C1018203000000000BF00BF0A
:101FC00000BF00BFFFF79AFF0000000001020304FA
:101FD000FEE7FEE7FEE7FEE7FEE7FEE7FEE7FEE7D9
:101FE000FEE7FEE7FEE7270004005080841E0002A3
:101FF000040101B80C0020080D0020B80C0020B826
:102000000C0020B80C0020450000202C000020E02F
:0120100000CF
:0400000508001FBD13
:00000001FF
